{
  "_format": "hh-sol-artifact-1",
  "contractName": "FundMe",
  "sourceName": "contracts/FundMe.sol",
  "abi": [
    {
      "inputs": [
        {
          "internalType": "uint256",
          "name": "_goal",
          "type": "uint256"
        },
        {
          "internalType": "uint256",
          "name": "_duration",
          "type": "uint256"
        },
        {
          "internalType": "uint256",
          "name": "_lockPeriod",
          "type": "uint256"
        }
      ],
      "stateMutability": "nonpayable",
      "type": "constructor"
    },
    {
      "anonymous": false,
      "inputs": [
        {
          "indexed": false,
          "internalType": "uint256",
          "name": "totalRaised",
          "type": "uint256"
        }
      ],
      "name": "CampaignFailed",
      "type": "event"
    },
    {
      "anonymous": false,
      "inputs": [
        {
          "indexed": false,
          "internalType": "uint256",
          "name": "totalRaised",
          "type": "uint256"
        }
      ],
      "name": "CampaignSuccessful",
      "type": "event"
    },
    {
      "anonymous": false,
      "inputs": [
        {
          "indexed": true,
          "internalType": "address",
          "name": "donor",
          "type": "address"
        },
        {
          "indexed": true,
          "internalType": "address",
          "name": "token",
          "type": "address"
        },
        {
          "indexed": false,
          "internalType": "uint256",
          "name": "amount",
          "type": "uint256"
        }
      ],
      "name": "DonationReceived",
      "type": "event"
    },
    {
      "anonymous": false,
      "inputs": [
        {
          "indexed": true,
          "internalType": "address",
          "name": "previousOwner",
          "type": "address"
        },
        {
          "indexed": true,
          "internalType": "address",
          "name": "newOwner",
          "type": "address"
        }
      ],
      "name": "OwnershipTransferred",
      "type": "event"
    },
    {
      "anonymous": false,
      "inputs": [
        {
          "indexed": true,
          "internalType": "address",
          "name": "donor",
          "type": "address"
        },
        {
          "indexed": true,
          "internalType": "address",
          "name": "token",
          "type": "address"
        },
        {
          "indexed": false,
          "internalType": "uint256",
          "name": "amount",
          "type": "uint256"
        }
      ],
      "name": "Refunded",
      "type": "event"
    },
    {
      "anonymous": false,
      "inputs": [
        {
          "indexed": true,
          "internalType": "address",
          "name": "owner",
          "type": "address"
        },
        {
          "indexed": true,
          "internalType": "address",
          "name": "token",
          "type": "address"
        },
        {
          "indexed": false,
          "internalType": "uint256",
          "name": "amount",
          "type": "uint256"
        }
      ],
      "name": "Withdrawn",
      "type": "event"
    },
    {
      "inputs": [
        {
          "internalType": "address",
          "name": "",
          "type": "address"
        },
        {
          "internalType": "address",
          "name": "",
          "type": "address"
        }
      ],
      "name": "contributions",
      "outputs": [
        {
          "internalType": "uint256",
          "name": "",
          "type": "uint256"
        }
      ],
      "stateMutability": "view",
      "type": "function"
    },
    {
      "inputs": [],
      "name": "deadline",
      "outputs": [
        {
          "internalType": "uint256",
          "name": "",
          "type": "uint256"
        }
      ],
      "stateMutability": "view",
      "type": "function"
    },
    {
      "inputs": [
        {
          "internalType": "address",
          "name": "token",
          "type": "address"
        },
        {
          "internalType": "uint256",
          "name": "amount",
          "type": "uint256"
        }
      ],
      "name": "donate",
      "outputs": [],
      "stateMutability": "payable",
      "type": "function"
    },
    {
      "inputs": [
        {
          "internalType": "address",
          "name": "",
          "type": "address"
        }
      ],
      "name": "donationCount",
      "outputs": [
        {
          "internalType": "uint256",
          "name": "",
          "type": "uint256"
        }
      ],
      "stateMutability": "view",
      "type": "function"
    },
    {
      "inputs": [
        {
          "internalType": "uint256",
          "name": "",
          "type": "uint256"
        }
      ],
      "name": "donorsList",
      "outputs": [
        {
          "internalType": "address",
          "name": "",
          "type": "address"
        }
      ],
      "stateMutability": "view",
      "type": "function"
    },
    {
      "inputs": [],
      "name": "finalize",
      "outputs": [],
      "stateMutability": "nonpayable",
      "type": "function"
    },
    {
      "inputs": [],
      "name": "getDonorsList",
      "outputs": [
        {
          "internalType": "address[]",
          "name": "",
          "type": "address[]"
        }
      ],
      "stateMutability": "view",
      "type": "function"
    },
    {
      "inputs": [],
      "name": "getTokenList",
      "outputs": [
        {
          "internalType": "address[]",
          "name": "",
          "type": "address[]"
        }
      ],
      "stateMutability": "view",
      "type": "function"
    },
    {
      "inputs": [],
      "name": "getTopDonors",
      "outputs": [
        {
          "components": [
            {
              "internalType": "address",
              "name": "donor",
              "type": "address"
            },
            {
              "internalType": "uint256",
              "name": "totalAmount",
              "type": "uint256"
            }
          ],
          "internalType": "struct FundMe.DonorInfo[]",
          "name": "",
          "type": "tuple[]"
        }
      ],
      "stateMutability": "view",
      "type": "function"
    },
    {
      "inputs": [],
      "name": "goal",
      "outputs": [
        {
          "internalType": "uint256",
          "name": "",
          "type": "uint256"
        }
      ],
      "stateMutability": "view",
      "type": "function"
    },
    {
      "inputs": [],
      "name": "lockPeriod",
      "outputs": [
        {
          "internalType": "uint256",
          "name": "",
          "type": "uint256"
        }
      ],
      "stateMutability": "view",
      "type": "function"
    },
    {
      "inputs": [],
      "name": "owner",
      "outputs": [
        {
          "internalType": "address",
          "name": "",
          "type": "address"
        }
      ],
      "stateMutability": "view",
      "type": "function"
    },
    {
      "inputs": [
        {
          "internalType": "address",
          "name": "token",
          "type": "address"
        }
      ],
      "name": "refund",
      "outputs": [],
      "stateMutability": "nonpayable",
      "type": "function"
    },
    {
      "inputs": [],
      "name": "renounceOwnership",
      "outputs": [],
      "stateMutability": "nonpayable",
      "type": "function"
    },
    {
      "inputs": [],
      "name": "state",
      "outputs": [
        {
          "internalType": "enum FundMe.State",
          "name": "",
          "type": "uint8"
        }
      ],
      "stateMutability": "view",
      "type": "function"
    },
    {
      "inputs": [
        {
          "internalType": "uint256",
          "name": "",
          "type": "uint256"
        }
      ],
      "name": "tokenList",
      "outputs": [
        {
          "internalType": "address",
          "name": "",
          "type": "address"
        }
      ],
      "stateMutability": "view",
      "type": "function"
    },
    {
      "inputs": [
        {
          "internalType": "uint256",
          "name": "",
          "type": "uint256"
        }
      ],
      "name": "topDonors",
      "outputs": [
        {
          "internalType": "address",
          "name": "donor",
          "type": "address"
        },
        {
          "internalType": "uint256",
          "name": "totalAmount",
          "type": "uint256"
        }
      ],
      "stateMutability": "view",
      "type": "function"
    },
    {
      "inputs": [
        {
          "internalType": "address",
          "name": "",
          "type": "address"
        }
      ],
      "name": "totalContributedCombined",
      "outputs": [
        {
          "internalType": "uint256",
          "name": "",
          "type": "uint256"
        }
      ],
      "stateMutability": "view",
      "type": "function"
    },
    {
      "inputs": [],
      "name": "totalEthRaised",
      "outputs": [
        {
          "internalType": "uint256",
          "name": "",
          "type": "uint256"
        }
      ],
      "stateMutability": "view",
      "type": "function"
    },
    {
      "inputs": [],
      "name": "totalRaisedCombined",
      "outputs": [
        {
          "internalType": "uint256",
          "name": "",
          "type": "uint256"
        }
      ],
      "stateMutability": "view",
      "type": "function"
    },
    {
      "inputs": [
        {
          "internalType": "address",
          "name": "",
          "type": "address"
        }
      ],
      "name": "totalTokenRaised",
      "outputs": [
        {
          "internalType": "uint256",
          "name": "",
          "type": "uint256"
        }
      ],
      "stateMutability": "view",
      "type": "function"
    },
    {
      "inputs": [
        {
          "internalType": "address",
          "name": "newOwner",
          "type": "address"
        }
      ],
      "name": "transferOwnership",
      "outputs": [],
      "stateMutability": "nonpayable",
      "type": "function"
    },
    {
      "inputs": [
        {
          "internalType": "address",
          "name": "token",
          "type": "address"
        }
      ],
      "name": "withdraw",
      "outputs": [],
      "stateMutability": "nonpayable",
      "type": "function"
    },
    {
      "stateMutability": "payable",
      "type": "receive"
    }
  ],
  "bytecode": "0x608060405234801561001057600080fd5b50604051614015380380614015833981810160405281019061003291906101f5565b600160008190555061005661004b6100ec60201b60201c565b6100f460201b60201c565b60008211610099576040517f08c379a0000000000000000000000000000000000000000000000000000000008152600401610090906102a5565b60405180910390fd5b8260028190555081426100ac91906102f4565b600381905550806004819055506000600160146101000a81548160ff021916908360028111156100df576100de610328565b5b0217905550505050610357565b600033905090565b6000600160009054906101000a900473ffffffffffffffffffffffffffffffffffffffff16905081600160006101000a81548173ffffffffffffffffffffffffffffffffffffffff021916908373ffffffffffffffffffffffffffffffffffffffff1602179055508173ffffffffffffffffffffffffffffffffffffffff168173ffffffffffffffffffffffffffffffffffffffff167f8be0079c531659141344cd1fd0a4f28419497f9722a3daafe3b4186f6b6457e060405160405180910390a35050565b600080fd5b6000819050919050565b6101d2816101bf565b81146101dd57600080fd5b50565b6000815190506101ef816101c9565b92915050565b60008060006060848603121561020e5761020d6101ba565b5b600061021c868287016101e0565b935050602061022d868287016101e0565b925050604061023e868287016101e0565b9150509250925092565b600082825260208201905092915050565b7f4475726174696f6e206d757374206265203e2030000000000000000000000000600082015250565b600061028f601483610248565b915061029a82610259565b602082019050919050565b600060208201905081810360008301526102be81610282565b9050919050565b7f4e487b7100000000000000000000000000000000000000000000000000000000600052601160045260246000fd5b60006102ff826101bf565b915061030a836101bf565b9250828201905080821115610322576103216102c5565b5b92915050565b7f4e487b7100000000000000000000000000000000000000000000000000000000600052602160045260246000fd5b613caf806103666000396000f3fe6080604052600436106101445760003560e01c8063715018a6116100b6578063d6387ed81161006f578063d6387ed814610550578063e65adb931461057b578063e69d849d146105a6578063f2fde38b146105c2578063f3d617bd146105eb578063fa89401a146106285761022d565b8063715018a61461043e5780638da5cb5b146104555780639ead722214610480578063a9627136146104bd578063c19d93fb146104fa578063c9e904be146105255761022d565b80634322123a116101085780634322123a1461031b5780634bb278f31461035857806350511f871461036f57806351cff8d91461039a5780635cbaddab146103c35780636511e69b146104015761022d565b8063273cbaa01461023257806329369ccf1461025d57806329dcb0cf1461029a5780633fd8b02f146102c557806340193883146102f05761022d565b3661022d57610151610651565b6000600281111561016557610164612a01565b5b600160149054906101000a900460ff16600281111561018757610186612a01565b5b148015610195575060035442105b6101d4576040517f08c379a00000000000000000000000000000000000000000000000000000000081526004016101cb90612a8d565b60405180910390fd5b60003411610217576040517f08c379a000000000000000000000000000000000000000000000000000000000815260040161020e90612af9565b60405180910390fd5b610223336000346106a0565b61022b610c56565b005b600080fd5b34801561023e57600080fd5b50610247610c60565b6040516102549190612c09565b60405180910390f35b34801561026957600080fd5b50610284600480360381019061027f9190612c5c565b610cee565b6040516102919190612cb5565b60405180910390f35b3480156102a657600080fd5b506102af610d13565b6040516102bc9190612cb5565b60405180910390f35b3480156102d157600080fd5b506102da610d19565b6040516102e79190612cb5565b60405180910390f35b3480156102fc57600080fd5b50610305610d1f565b6040516103129190612cb5565b60405180910390f35b34801561032757600080fd5b50610342600480360381019061033d9190612cd0565b610d25565b60405161034f9190612cb5565b60405180910390f35b34801561036457600080fd5b5061036d610d3d565b005b34801561037b57600080fd5b50610384610ed2565b6040516103919190612c09565b60405180910390f35b3480156103a657600080fd5b506103c160048036038101906103bc9190612cd0565b610f60565b005b3480156103cf57600080fd5b506103ea60048036038101906103e59190612d29565b6113bd565b6040516103f8929190612d65565b60405180910390f35b34801561040d57600080fd5b5061042860048036038101906104239190612cd0565b611411565b6040516104359190612cb5565b60405180910390f35b34801561044a57600080fd5b50610453611429565b005b34801561046157600080fd5b5061046a61143d565b6040516104779190612d8e565b60405180910390f35b34801561048c57600080fd5b506104a760048036038101906104a29190612d29565b611467565b6040516104b49190612d8e565b60405180910390f35b3480156104c957600080fd5b506104e460048036038101906104df9190612d29565b6114a6565b6040516104f19190612d8e565b60405180910390f35b34801561050657600080fd5b5061050f6114e5565b60405161051c9190612df1565b60405180910390f35b34801561053157600080fd5b5061053a6114f8565b6040516105479190612cb5565b60405180910390f35b34801561055c57600080fd5b506105656114fe565b6040516105729190612ef9565b60405180910390f35b34801561058757600080fd5b506105906115bd565b60405161059d9190612cb5565b60405180910390f35b6105c060048036038101906105bb9190612f1b565b6115c3565b005b3480156105ce57600080fd5b506105e960048036038101906105e49190612cd0565b611880565b005b3480156105f757600080fd5b50610612600480360381019061060d9190612cd0565b611903565b60405161061f9190612cb5565b60405180910390f35b34801561063457600080fd5b5061064f600480360381019061064a9190612cd0565b61191b565b005b600260005403610696576040517f08c379a000000000000000000000000000000000000000000000000000000000815260040161068d90612fa7565b60405180910390fd5b6002600081905550565b80600860008573ffffffffffffffffffffffffffffffffffffffff1673ffffffffffffffffffffffffffffffffffffffff16815260200190815260200160002060008473ffffffffffffffffffffffffffffffffffffffff1673ffffffffffffffffffffffffffffffffffffffff168152602001908152602001600020600082825461072c9190612ff6565b925050819055506001600a60008573ffffffffffffffffffffffffffffffffffffffff1673ffffffffffffffffffffffffffffffffffffffff16815260200190815260200160002060008282546107839190612ff6565b92505081905550600c60008473ffffffffffffffffffffffffffffffffffffffff1673ffffffffffffffffffffffffffffffffffffffff16815260200190815260200160002060009054906101000a900460ff16610897576001600c60008573ffffffffffffffffffffffffffffffffffffffff1673ffffffffffffffffffffffffffffffffffffffff16815260200190815260200160002060006101000a81548160ff021916908315150217905550600b839080600181540180825580915050600190039060005260206000200160009091909190916101000a81548173ffffffffffffffffffffffffffffffffffffffff021916908373ffffffffffffffffffffffffffffffffffffffff1602179055505b600073ffffffffffffffffffffffffffffffffffffffff168273ffffffffffffffffffffffffffffffffffffffff16036108e95780600560008282546108dd9190612ff6565b92505081905550610a4d565b80600660008473ffffffffffffffffffffffffffffffffffffffff1673ffffffffffffffffffffffffffffffffffffffff16815260200190815260200160002060008282546109389190612ff6565b92505081905550600e60008373ffffffffffffffffffffffffffffffffffffffff1673ffffffffffffffffffffffffffffffffffffffff16815260200190815260200160002060009054906101000a900460ff16610a4c576001600e60008473ffffffffffffffffffffffffffffffffffffffff1673ffffffffffffffffffffffffffffffffffffffff16815260200190815260200160002060006101000a81548160ff021916908315150217905550600d829080600181540180825580915050600190039060005260206000200160009091909190916101000a81548173ffffffffffffffffffffffffffffffffffffffff021916908373ffffffffffffffffffffffffffffffffffffffff1602179055505b5b6000819050600060129050600073ffffffffffffffffffffffffffffffffffffffff168473ffffffffffffffffffffffffffffffffffffffff1614610b07578373ffffffffffffffffffffffffffffffffffffffff1663313ce5676040518163ffffffff1660e01b8152600401602060405180830381865afa925050508015610af457506040513d601f19601f82011682018060405250810190610af19190613063565b60015b610b015760129050610b06565b809150505b5b60128160ff161015610b3e57806012610b209190613090565b600a610b2c91906131f8565b83610b379190613243565b9150610b72565b60128160ff161115610b7157601281610b579190613090565b600a610b6391906131f8565b83610b6e91906132b4565b91505b5b81600960008773ffffffffffffffffffffffffffffffffffffffff1673ffffffffffffffffffffffffffffffffffffffff1681526020019081526020016000206000828254610bc19190612ff6565b925050819055508160076000828254610bda9190612ff6565b92505081905550610bea85612319565b8373ffffffffffffffffffffffffffffffffffffffff168573ffffffffffffffffffffffffffffffffffffffff167f509fb5d764cf5e98b9f02a3d86350f8085cedb516140098d2d6fc2eb6256ac2485604051610c479190612cb5565b60405180910390a35050505050565b6001600081905550565b6060600d805480602002602001604051908101604052809291908181526020018280548015610ce457602002820191906000526020600020905b8160009054906101000a900473ffffffffffffffffffffffffffffffffffffffff1673ffffffffffffffffffffffffffffffffffffffff1681526020019060010190808311610c9a575b5050505050905090565b6008602052816000526040600020602052806000526040600020600091509150505481565b60035481565b60045481565b60025481565b600a6020528060005260406000206000915090505481565b60006002811115610d5157610d50612a01565b5b600160149054906101000a900460ff166002811115610d7357610d72612a01565b5b14610db3576040517f08c379a0000000000000000000000000000000000000000000000000000000008152600401610daa90613331565b60405180910390fd5b600354421015610df8576040517f08c379a0000000000000000000000000000000000000000000000000000000008152600401610def9061339d565b60405180910390fd5b60025460075410610e6b5760018060146101000a81548160ff02191690836002811115610e2857610e27612a01565b5b02179055507ff2460a88147f5180b9df3609a3c66dda39614029da9fdf0b90564b7154374d2f600754604051610e5e9190612cb5565b60405180910390a1610ed0565b6002600160146101000a81548160ff02191690836002811115610e9157610e90612a01565b5b02179055507f7b1418b19a03b176f641639ee79855da661fa88a08377ecd32ad6d38152b9536600754604051610ec79190612cb5565b60405180910390a15b565b6060600b805480602002602001604051908101604052809291908181526020018280548015610f5657602002820191906000526020600020905b8160009054906101000a900473ffffffffffffffffffffffffffffffffffffffff1673ffffffffffffffffffffffffffffffffffffffff1681526020019060010190808311610f0c575b5050505050905090565b610f686128b5565b610f70610651565b60016002811115610f8457610f83612a01565b5b600160149054906101000a900460ff166002811115610fa657610fa5612a01565b5b14610fe6576040517f08c379a0000000000000000000000000000000000000000000000000000000008152600401610fdd90613409565b60405180910390fd5b600454600354610ff69190612ff6565b421015611038576040517f08c379a000000000000000000000000000000000000000000000000000000000815260040161102f90613475565b60405180910390fd5b600073ffffffffffffffffffffffffffffffffffffffff168173ffffffffffffffffffffffffffffffffffffffff16036111cd576000479050600081116110b4576040517f08c379a00000000000000000000000000000000000000000000000000000000081526004016110ab906134e1565b60405180910390fd5b60003373ffffffffffffffffffffffffffffffffffffffff16826040516110da90613532565b60006040518083038185875af1925050503d8060008114611117576040519150601f19603f3d011682016040523d82523d6000602084013e61111c565b606091505b5050905080611160576040517f08c379a000000000000000000000000000000000000000000000000000000000815260040161115790613593565b60405180910390fd5b600073ffffffffffffffffffffffffffffffffffffffff163373ffffffffffffffffffffffffffffffffffffffff167fd1c19fbcd4551a5edfb66d43d2e337c04837afda3482b42bdf569a8fccdae5fb846040516111be9190612cb5565b60405180910390a350506113b2565b60008173ffffffffffffffffffffffffffffffffffffffff166370a08231306040518263ffffffff1660e01b81526004016112089190612d8e565b602060405180830381865afa158015611225573d6000803e3d6000fd5b505050506040513d601f19601f8201168201806040525081019061124991906135c8565b90506000811161128e576040517f08c379a000000000000000000000000000000000000000000000000000000000815260040161128590613641565b60405180910390fd5b8173ffffffffffffffffffffffffffffffffffffffff1663a9059cbb33836040518363ffffffff1660e01b81526004016112c9929190612d65565b6020604051808303816000875af11580156112e8573d6000803e3d6000fd5b505050506040513d601f19601f8201168201806040525081019061130c9190613699565b61134b576040517f08c379a000000000000000000000000000000000000000000000000000000000815260040161134290613712565b60405180910390fd5b8173ffffffffffffffffffffffffffffffffffffffff163373ffffffffffffffffffffffffffffffffffffffff167fd1c19fbcd4551a5edfb66d43d2e337c04837afda3482b42bdf569a8fccdae5fb836040516113a89190612cb5565b60405180910390a3505b6113ba610c56565b50565b600f81815481106113cd57600080fd5b90600052602060002090600202016000915090508060000160009054906101000a900473ffffffffffffffffffffffffffffffffffffffff16908060010154905082565b60096020528060005260406000206000915090505481565b6114316128b5565b61143b6000612933565b565b6000600160009054906101000a900473ffffffffffffffffffffffffffffffffffffffff16905090565b600d818154811061147757600080fd5b906000526020600020016000915054906101000a900473ffffffffffffffffffffffffffffffffffffffff1681565b600b81815481106114b657600080fd5b906000526020600020016000915054906101000a900473ffffffffffffffffffffffffffffffffffffffff1681565b600160149054906101000a900460ff1681565b60055481565b6060600f805480602002602001604051908101604052809291908181526020016000905b828210156115b457838290600052602060002090600202016040518060400160405290816000820160009054906101000a900473ffffffffffffffffffffffffffffffffffffffff1673ffffffffffffffffffffffffffffffffffffffff1673ffffffffffffffffffffffffffffffffffffffff16815260200160018201548152505081526020019060010190611522565b50505050905090565b60075481565b6115cb610651565b600060028111156115df576115de612a01565b5b600160149054906101000a900460ff16600281111561160157611600612a01565b5b14801561160f575060035442105b61164e576040517f08c379a000000000000000000000000000000000000000000000000000000000815260040161164590612a8d565b60405180910390fd5b600073ffffffffffffffffffffffffffffffffffffffff168273ffffffffffffffffffffffffffffffffffffffff160361172357600034116116c5576040517f08c379a00000000000000000000000000000000000000000000000000000000081526004016116bc90612af9565b60405180910390fd5b60008114806116d357503481145b611712576040517f08c379a00000000000000000000000000000000000000000000000000000000081526004016117099061377e565b60405180910390fd5b61171e336000346106a0565b611874565b60003414611766576040517f08c379a000000000000000000000000000000000000000000000000000000000815260040161175d90613810565b60405180910390fd5b600081116117a9576040517f08c379a00000000000000000000000000000000000000000000000000000000081526004016117a09061387c565b60405180910390fd5b8173ffffffffffffffffffffffffffffffffffffffff166323b872dd3330846040518463ffffffff1660e01b81526004016117e69392919061389c565b6020604051808303816000875af1158015611805573d6000803e3d6000fd5b505050506040513d601f19601f820116820180604052508101906118299190613699565b611868576040517f08c379a000000000000000000000000000000000000000000000000000000000815260040161185f9061391f565b60405180910390fd5b6118733383836106a0565b5b61187c610c56565b5050565b6118886128b5565b600073ffffffffffffffffffffffffffffffffffffffff168173ffffffffffffffffffffffffffffffffffffffff16036118f7576040517f08c379a00000000000000000000000000000000000000000000000000000000081526004016118ee906139b1565b60405180910390fd5b61190081612933565b50565b60066020528060005260406000206000915090505481565b611923610651565b60028081111561193657611935612a01565b5b600160149054906101000a900460ff16600281111561195857611957612a01565b5b14611998576040517f08c379a000000000000000000000000000000000000000000000000000000000815260040161198f90613a1d565b60405180910390fd5b6000600860003373ffffffffffffffffffffffffffffffffffffffff1673ffffffffffffffffffffffffffffffffffffffff16815260200190815260200160002060008373ffffffffffffffffffffffffffffffffffffffff1673ffffffffffffffffffffffffffffffffffffffff16815260200190815260200160002054905060008111611a5c576040517f08c379a0000000000000000000000000000000000000000000000000000000008152600401611a5390613a89565b60405180910390fd5b6000600860003373ffffffffffffffffffffffffffffffffffffffff1673ffffffffffffffffffffffffffffffffffffffff16815260200190815260200160002060008473ffffffffffffffffffffffffffffffffffffffff1673ffffffffffffffffffffffffffffffffffffffff16815260200190815260200160002081905550600073ffffffffffffffffffffffffffffffffffffffff168273ffffffffffffffffffffffffffffffffffffffff1603611b30578060056000828254611b249190613aa9565b92505081905550611b87565b80600660008473ffffffffffffffffffffffffffffffffffffffff1673ffffffffffffffffffffffffffffffffffffffff1681526020019081526020016000206000828254611b7f9190613aa9565b925050819055505b6000819050600060129050600073ffffffffffffffffffffffffffffffffffffffff168473ffffffffffffffffffffffffffffffffffffffff1614611c41578373ffffffffffffffffffffffffffffffffffffffff1663313ce5676040518163ffffffff1660e01b8152600401602060405180830381865afa925050508015611c2e57506040513d601f19601f82011682018060405250810190611c2b9190613063565b60015b611c3b5760129050611c40565b809150505b5b60128160ff161015611c7857806012611c5a9190613090565b600a611c6691906131f8565b83611c719190613243565b9150611cac565b60128160ff161115611cab57601281611c919190613090565b600a611c9d91906131f8565b83611ca891906132b4565b91505b5b81600960003373ffffffffffffffffffffffffffffffffffffffff1673ffffffffffffffffffffffffffffffffffffffff1681526020019081526020016000206000828254611cfb9190613aa9565b925050819055508160076000828254611d149190613aa9565b9250508190555060005b600f80549050811015611e1a573373ffffffffffffffffffffffffffffffffffffffff16600f8281548110611d5657611d55613add565b5b906000526020600020906002020160000160009054906101000a900473ffffffffffffffffffffffffffffffffffffffff1673ffffffffffffffffffffffffffffffffffffffff1603611e0d57600960003373ffffffffffffffffffffffffffffffffffffffff1673ffffffffffffffffffffffffffffffffffffffff16815260200190815260200160002054600f8281548110611df757611df6613add565b5b9060005260206000209060020201600101819055505b8080600101915050611d1e565b506000600f80549050905060005b8181101561209a5760005b600183611e409190613aa9565b81101561208c57600f600182611e569190612ff6565b81548110611e6757611e66613add565b5b906000526020600020906002020160010154600f8281548110611e8d57611e8c613add565b5b906000526020600020906002020160010154101561207f576000600f8281548110611ebb57611eba613add565b5b90600052602060002090600202016040518060400160405290816000820160009054906101000a900473ffffffffffffffffffffffffffffffffffffffff1673ffffffffffffffffffffffffffffffffffffffff1673ffffffffffffffffffffffffffffffffffffffff1681526020016001820154815250509050600f600183611f459190612ff6565b81548110611f5657611f55613add565b5b9060005260206000209060020201600f8381548110611f7857611f77613add565b5b90600052602060002090600202016000820160009054906101000a900473ffffffffffffffffffffffffffffffffffffffff168160000160006101000a81548173ffffffffffffffffffffffffffffffffffffffff021916908373ffffffffffffffffffffffffffffffffffffffff1602179055506001820154816001015590505080600f60018461200a9190612ff6565b8154811061201b5761201a613add565b5b906000526020600020906002020160008201518160000160006101000a81548173ffffffffffffffffffffffffffffffffffffffff021916908373ffffffffffffffffffffffffffffffffffffffff16021790555060208201518160010155905050505b8080600101915050611e33565b508080600101915050611e28565b50600073ffffffffffffffffffffffffffffffffffffffff168573ffffffffffffffffffffffffffffffffffffffff16036121e75760003373ffffffffffffffffffffffffffffffffffffffff16856040516120f590613532565b60006040518083038185875af1925050503d8060008114612132576040519150601f19603f3d011682016040523d82523d6000602084013e612137565b606091505b505090508061217b576040517f08c379a000000000000000000000000000000000000000000000000000000000815260040161217290613b58565b60405180910390fd5b600073ffffffffffffffffffffffffffffffffffffffff163373ffffffffffffffffffffffffffffffffffffffff167fec1e5ed733e00f1a00915d56caef57b4f52312dde4f9b3165f213319a0da156b876040516121d99190612cb5565b60405180910390a35061230a565b8473ffffffffffffffffffffffffffffffffffffffff1663a9059cbb33866040518363ffffffff1660e01b8152600401612222929190612d65565b6020604051808303816000875af1158015612241573d6000803e3d6000fd5b505050506040513d601f19601f820116820180604052508101906122659190613699565b6122a4576040517f08c379a000000000000000000000000000000000000000000000000000000000815260040161229b90613bc4565b60405180910390fd5b8473ffffffffffffffffffffffffffffffffffffffff163373ffffffffffffffffffffffffffffffffffffffff167fec1e5ed733e00f1a00915d56caef57b4f52312dde4f9b3165f213319a0da156b866040516123019190612cb5565b60405180910390a35b50505050612316610c56565b50565b6000600960008373ffffffffffffffffffffffffffffffffffffffff1673ffffffffffffffffffffffffffffffffffffffff16815260200190815260200160002054905060008080600090505b600f8054905081101561242e578473ffffffffffffffffffffffffffffffffffffffff16600f828154811061239e5761239d613add565b5b906000526020600020906002020160000160009054906101000a900473ffffffffffffffffffffffffffffffffffffffff1673ffffffffffffffffffffffffffffffffffffffff1603612421576001925083600f828154811061240457612403613add565b5b90600052602060002090600202016001018190555080915061242e565b8080600101915050612366565b508161265757600a600f80549050101561250457600f60405180604001604052808673ffffffffffffffffffffffffffffffffffffffff16815260200185815250908060018154018082558091505060019003906000526020600020906002020160009091909190915060008201518160000160006101000a81548173ffffffffffffffffffffffffffffffffffffffff021916908373ffffffffffffffffffffffffffffffffffffffff1602179055506020820151816001015550506001600f805490506124fd9190613aa9565b9050612656565b600080600f60008154811061251c5761251b613add565b5b90600052602060002090600202016001015490506000600190505b600f805490508110156125aa5781600f828154811061255957612558613add565b5b906000526020600020906002020160010154101561259d57600f818154811061258557612584613add565b5b90600052602060002090600202016001015491508092505b8080600101915050612537565b50808511156126495785600f83815481106125c8576125c7613add565b5b906000526020600020906002020160000160006101000a81548173ffffffffffffffffffffffffffffffffffffffff021916908373ffffffffffffffffffffffffffffffffffffffff16021790555084600f838154811061262c5761262b613add565b5b906000526020600020906002020160010181905550819250612653565b50505050506128b2565b50505b5b5b6000811180156126bd5750600f6001826126729190613aa9565b8154811061268357612682613add565b5b906000526020600020906002020160010154600f82815481106126a9576126a8613add565b5b906000526020600020906002020160010154115b156128ae576000600f6001836126d39190613aa9565b815481106126e4576126e3613add565b5b90600052602060002090600202016040518060400160405290816000820160009054906101000a900473ffffffffffffffffffffffffffffffffffffffff1673ffffffffffffffffffffffffffffffffffffffff1673ffffffffffffffffffffffffffffffffffffffff1681526020016001820154815250509050600f828154811061277357612772613add565b5b9060005260206000209060020201600f6001846127909190613aa9565b815481106127a1576127a0613add565b5b90600052602060002090600202016000820160009054906101000a900473ffffffffffffffffffffffffffffffffffffffff168160000160006101000a81548173ffffffffffffffffffffffffffffffffffffffff021916908373ffffffffffffffffffffffffffffffffffffffff1602179055506001820154816001015590505080600f838154811061283857612837613add565b5b906000526020600020906002020160008201518160000160006101000a81548173ffffffffffffffffffffffffffffffffffffffff021916908373ffffffffffffffffffffffffffffffffffffffff1602179055506020820151816001015590505081806128a590613be4565b92505050612658565b5050505b50565b6128bd6129f9565b73ffffffffffffffffffffffffffffffffffffffff166128db61143d565b73ffffffffffffffffffffffffffffffffffffffff1614612931576040517f08c379a000000000000000000000000000000000000000000000000000000000815260040161292890613c59565b60405180910390fd5b565b6000600160009054906101000a900473ffffffffffffffffffffffffffffffffffffffff16905081600160006101000a81548173ffffffffffffffffffffffffffffffffffffffff021916908373ffffffffffffffffffffffffffffffffffffffff1602179055508173ffffffffffffffffffffffffffffffffffffffff168173ffffffffffffffffffffffffffffffffffffffff167f8be0079c531659141344cd1fd0a4f28419497f9722a3daafe3b4186f6b6457e060405160405180910390a35050565b600033905090565b7f4e487b7100000000000000000000000000000000000000000000000000000000600052602160045260246000fd5b600082825260208201905092915050565b7f4e6f742066756e6472616973696e670000000000000000000000000000000000600082015250565b6000612a77600f83612a30565b9150612a8282612a41565b602082019050919050565b60006020820190508181036000830152612aa681612a6a565b9050919050565b7f4e6f204554482073656e74000000000000000000000000000000000000000000600082015250565b6000612ae3600b83612a30565b9150612aee82612aad565b602082019050919050565b60006020820190508181036000830152612b1281612ad6565b9050919050565b600081519050919050565b600082825260208201905092915050565b6000819050602082019050919050565b600073ffffffffffffffffffffffffffffffffffffffff82169050919050565b6000612b7082612b45565b9050919050565b612b8081612b65565b82525050565b6000612b928383612b77565b60208301905092915050565b6000602082019050919050565b6000612bb682612b19565b612bc08185612b24565b9350612bcb83612b35565b8060005b83811015612bfc578151612be38882612b86565b9750612bee83612b9e565b925050600181019050612bcf565b5085935050505092915050565b60006020820190508181036000830152612c238184612bab565b905092915050565b600080fd5b612c3981612b65565b8114612c4457600080fd5b50565b600081359050612c5681612c30565b92915050565b60008060408385031215612c7357612c72612c2b565b5b6000612c8185828601612c47565b9250506020612c9285828601612c47565b9150509250929050565b6000819050919050565b612caf81612c9c565b82525050565b6000602082019050612cca6000830184612ca6565b92915050565b600060208284031215612ce657612ce5612c2b565b5b6000612cf484828501612c47565b91505092915050565b612d0681612c9c565b8114612d1157600080fd5b50565b600081359050612d2381612cfd565b92915050565b600060208284031215612d3f57612d3e612c2b565b5b6000612d4d84828501612d14565b91505092915050565b612d5f81612b65565b82525050565b6000604082019050612d7a6000830185612d56565b612d876020830184612ca6565b9392505050565b6000602082019050612da36000830184612d56565b92915050565b60038110612dba57612db9612a01565b5b50565b6000819050612dcb82612da9565b919050565b6000612ddb82612dbd565b9050919050565b612deb81612dd0565b82525050565b6000602082019050612e066000830184612de2565b92915050565b600081519050919050565b600082825260208201905092915050565b6000819050602082019050919050565b612e4181612c9c565b82525050565b604082016000820151612e5d6000850182612b77565b506020820151612e706020850182612e38565b50505050565b6000612e828383612e47565b60408301905092915050565b6000602082019050919050565b6000612ea682612e0c565b612eb08185612e17565b9350612ebb83612e28565b8060005b83811015612eec578151612ed38882612e76565b9750612ede83612e8e565b925050600181019050612ebf565b5085935050505092915050565b60006020820190508181036000830152612f138184612e9b565b905092915050565b60008060408385031215612f3257612f31612c2b565b5b6000612f4085828601612c47565b9250506020612f5185828601612d14565b9150509250929050565b7f5265656e7472616e637947756172643a207265656e7472616e742063616c6c00600082015250565b6000612f91601f83612a30565b9150612f9c82612f5b565b602082019050919050565b60006020820190508181036000830152612fc081612f84565b9050919050565b7f4e487b7100000000000000000000000000000000000000000000000000000000600052601160045260246000fd5b600061300182612c9c565b915061300c83612c9c565b925082820190508082111561302457613023612fc7565b5b92915050565b600060ff82169050919050565b6130408161302a565b811461304b57600080fd5b50565b60008151905061305d81613037565b92915050565b60006020828403121561307957613078612c2b565b5b60006130878482850161304e565b91505092915050565b600061309b8261302a565b91506130a68361302a565b9250828203905060ff8111156130bf576130be612fc7565b5b92915050565b60008160011c9050919050565b6000808291508390505b600185111561311c578086048111156130f8576130f7612fc7565b5b60018516156131075780820291505b8081029050613115856130c5565b94506130dc565b94509492505050565b60008261313557600190506131f1565b8161314357600090506131f1565b8160018114613159576002811461316357613192565b60019150506131f1565b60ff84111561317557613174612fc7565b5b8360020a91508482111561318c5761318b612fc7565b5b506131f1565b5060208310610133831016604e8410600b84101617156131c75782820a9050838111156131c2576131c1612fc7565b5b6131f1565b6131d484848460016130d2565b925090508184048111156131eb576131ea612fc7565b5b81810290505b9392505050565b600061320382612c9c565b915061320e8361302a565b925061323b7fffffffffffffffffffffffffffffffffffffffffffffffffffffffffffffffff8484613125565b905092915050565b600061324e82612c9c565b915061325983612c9c565b925082820261326781612c9c565b9150828204841483151761327e5761327d612fc7565b5b5092915050565b7f4e487b7100000000000000000000000000000000000000000000000000000000600052601260045260246000fd5b60006132bf82612c9c565b91506132ca83612c9c565b9250826132da576132d9613285565b5b828204905092915050565b7f416c72656164792066696e616c697a6564000000000000000000000000000000600082015250565b600061331b601183612a30565b9150613326826132e5565b602082019050919050565b6000602082019050818103600083015261334a8161330e565b9050919050565b7f43616d706169676e206e6f7420656e6465640000000000000000000000000000600082015250565b6000613387601283612a30565b915061339282613351565b602082019050919050565b600060208201905081810360008301526133b68161337a565b9050919050565b7f43616d706169676e206e6f74207375636365737366756c000000000000000000600082015250565b60006133f3601783612a30565b91506133fe826133bd565b602082019050919050565b60006020820190508181036000830152613422816133e6565b9050919050565b7f5769746864726177616c2069732074696d652d6c6f636b656400000000000000600082015250565b600061345f601983612a30565b915061346a82613429565b602082019050919050565b6000602082019050818103600083015261348e81613452565b9050919050565b7f4e6f2045544820746f2077697468647261770000000000000000000000000000600082015250565b60006134cb601283612a30565b91506134d682613495565b602082019050919050565b600060208201905081810360008301526134fa816134be565b9050919050565b600081905092915050565b50565b600061351c600083613501565b91506135278261350c565b600082019050919050565b600061353d8261350f565b9150819050919050565b7f455448207769746864726177206661696c656400000000000000000000000000600082015250565b600061357d601383612a30565b915061358882613547565b602082019050919050565b600060208201905081810360008301526135ac81613570565b9050919050565b6000815190506135c281612cfd565b92915050565b6000602082840312156135de576135dd612c2b565b5b60006135ec848285016135b3565b91505092915050565b7f4e6f20746f6b656e2062616c616e636500000000000000000000000000000000600082015250565b600061362b601083612a30565b9150613636826135f5565b602082019050919050565b6000602082019050818103600083015261365a8161361e565b9050919050565b60008115159050919050565b61367681613661565b811461368157600080fd5b50565b6000815190506136938161366d565b92915050565b6000602082840312156136af576136ae612c2b565b5b60006136bd84828501613684565b91505092915050565b7f546f6b656e207769746864726177206661696c65640000000000000000000000600082015250565b60006136fc601583612a30565b9150613707826136c6565b602082019050919050565b6000602082019050818103600083015261372b816136ef565b9050919050565b7f416d6f756e74206d69736d617463680000000000000000000000000000000000600082015250565b6000613768600f83612a30565b915061377382613732565b602082019050919050565b600060208201905081810360008301526137978161375b565b9050919050565b7f455448206e6f7420616363657074656420666f7220746f6b656e20646f6e617460008201527f696f6e0000000000000000000000000000000000000000000000000000000000602082015250565b60006137fa602383612a30565b91506138058261379e565b604082019050919050565b60006020820190508181036000830152613829816137ed565b9050919050565b7f546f6b656e20616d6f756e74206d757374206265203e20300000000000000000600082015250565b6000613866601883612a30565b915061387182613830565b602082019050919050565b6000602082019050818103600083015261389581613859565b9050919050565b60006060820190506138b16000830186612d56565b6138be6020830185612d56565b6138cb6040830184612ca6565b949350505050565b7f546f6b656e207472616e73666572206661696c65640000000000000000000000600082015250565b6000613909601583612a30565b9150613914826138d3565b602082019050919050565b60006020820190508181036000830152613938816138fc565b9050919050565b7f4f776e61626c653a206e6577206f776e657220697320746865207a65726f206160008201527f6464726573730000000000000000000000000000000000000000000000000000602082015250565b600061399b602683612a30565b91506139a68261393f565b604082019050919050565b600060208201905081810360008301526139ca8161398e565b9050919050565b7f43616d706169676e206e6f74206661696c656400000000000000000000000000600082015250565b6000613a07601383612a30565b9150613a12826139d1565b602082019050919050565b60006020820190508181036000830152613a36816139fa565b9050919050565b7f4e6f7468696e6720746f20726566756e64000000000000000000000000000000600082015250565b6000613a73601183612a30565b9150613a7e82613a3d565b602082019050919050565b60006020820190508181036000830152613aa281613a66565b9050919050565b6000613ab482612c9c565b9150613abf83612c9c565b9250828203905081811115613ad757613ad6612fc7565b5b92915050565b7f4e487b7100000000000000000000000000000000000000000000000000000000600052603260045260246000fd5b7f45544820726566756e64206661696c6564000000000000000000000000000000600082015250565b6000613b42601183612a30565b9150613b4d82613b0c565b602082019050919050565b60006020820190508181036000830152613b7181613b35565b9050919050565b7f546f6b656e20726566756e64206661696c656400000000000000000000000000600082015250565b6000613bae601383612a30565b9150613bb982613b78565b602082019050919050565b60006020820190508181036000830152613bdd81613ba1565b9050919050565b6000613bef82612c9c565b915060008203613c0257613c01612fc7565b5b600182039050919050565b7f4f776e61626c653a2063616c6c6572206973206e6f7420746865206f776e6572600082015250565b6000613c43602083612a30565b9150613c4e82613c0d565b602082019050919050565b60006020820190508181036000830152613c7281613c36565b905091905056fea264697066735822122044583cccd49de26a0c55e4fe050b83517727c2ba9ff07a7d30728150322e885864736f6c634300081c0033",
  "linkReferences": {},
  "deployedLinkReferences": {}
}